:020000040800F2
:100000009007002095010008FF150008F71500086B
:10001000FB150008110600089918000800000000F0
:100020000000000000000000000000002D16000885
:100030001506000800000000011600082F16000831
:10004000AF010008AF010008AF010008AF010008D0
:10005000AF010008AF010008AF010008AF010008C0
:10006000AF010008AF010008AF010008AF010008B0
:10007000AF010008AF010008AF010008AF010008A0
:10008000AF010008AF010008AF0100080000000048
:10009000000000000000000000000000AF010008A8
:1000A0000000000000000000000000000000000050
:1000B000AF010008AF010008AF010008AF01000860
:1000C000AF010008AF010008AF010008AF01000850
:1000D000AF01000889180008AF010008AF0100084F
:1000E000AF010008AF01000800F002F800F042F88C
:1000F0000AA090E8000C82448344AAF10107DA4583
:1001000001D100F037F8AFF2090EBAE80F0013F092
:10011000010F18BFFB1A43F001031847582C0000C9
:10012000782C0000103A24BF78C878C1FAD852075A
:1001300024BF30C830C144BF04680C607047000061
:100140000023002400250026103A28BF78C1FBD8E0
:10015000520728BF30C148BF0B607047642900F0C8
:100160006F80782900F0A880002070471FB51FBD60
:1001700010B510BD00F01AFA1146FFF7F7FF01F0B5
:10018000F5FB00F038FA03B4FFF7F2FF03BC01F00F
:10019000A8FB00000948804709480047FEE7FEE742
:1001A000FEE7FEE7FEE7FEE7FEE7FEE7FEE7FEE727
:1001B00004480549054A064B7047000037160008F9
:1001C000E900000890010020900700209003002023
:1001D00090030020704700000FB4044910B503AA33
:1001E000029800F0B5F910BC5DF814FB1400002073
:1001F00070B5044685690068C10601D5302600E067
:100200002026C00707D070BDD4E9012130469047B1
:10021000206A401C20626D1EF6D570BD70B5044684
:1002200085690078C00707D170BDD4E9012120207D
:100230009047206A401C20626D1EF6D570BD0000FC
:100240002DE9F0410646002410687529314616A5AF
:1002500010D0AFF30080002802DA404213A507E077
:1002600031688A0701D512A502E0490704D511A516
:10027000012401E0AFF3008000210A2206F12407E7
:1002800009E0B0FBF2FCB0FBF2F302FB1C003030E3
:1002900078541846491C0028F3D123462A46304694
:1002A000BDE8F04100F0FBB8000000002D000000A8
:1002B0002B0000002000000070B504460D462146CA
:1002C0001068AFF300802188090502D50F4A7A44EF
:1002D00002E00E4A7A440E32002104F1240305E0C4
:1002E00000F00F060009965D5E54491C0028F7D106
:1002F00020780023000704D5702D02D009B1022315
:1003000011322046BDE8704000F0C9B8672A0000ED
:100310002DE9F05F894604464FF0000ADFF824B16A
:10032000FB44C0F820A02046E168884700287DD023
:10033000252806D0D4E901219047206A401C20627C
:10034000F1E700255F462046E168884720280646F9
:1003500007DB312E05D2B81910F8200C08B105437F
:10036000F1E7A80701D525F00405C4F81CA0002773
:10037000C4F818A02A2E09D0304601F0ABFA38B3E1
:1003800004EB8708303EC8F8186019E059F8041BE0
:10039000204604EB87029161E1688847012F0646F9
:1003A00018D1E069002820DA25F020051DE0D8F8F2
:1003B000180000EB800006EB40003038C8F8180049
:1003C0002046E1688847064601F084FA0028EED10D
:1003D000012F0AD02E2E08D12046E16888477F1CC5
:1003E0000646022F45F02005C4DBA069002803DA89
:1003F000404245F00105A061E80701D025F0100555
:10040000A6B1A6F14100192802D8203645F40065AE
:100410004A463146204625604D46FFF79FFE60B1B3
:10042000012807D0ED1D25F0070000E007E000F1EE
:10043000080978E705F1040975E730467AE7206A8C
:10044000BDE8F09F3D2A00004FF0000200B51346C2
:1004500094469646203922BFA0E80C50A0E80C50E4
:10046000B1F12001BFF4F7AF090728BFA0E80C5095
:1004700048BF0CC05DF804EB890028BF40F8042B8E
:1004800008BF704748BF20F8022B11F0804F18BFFB
:1004900000F8012B704770477047704770472DE98F
:1004A000F0470D4699469246044600F1240801683B
:1004B000880604D5E06921F01001216000E00120E8
:1004C000A84201DD471B00E00027A1697A1902EB71
:1004D0000900081AA0612078C00602D42046FFF760
:1004E00087FE002608E0D4E901211AF806009047AB
:1004F000206A401C761C20624E45F4DB2078C00642
:100500000AD52046FFF774FE06E0D4E90121302029
:100510009047206A401C2062381EA7F10107F4DCD6
:1005200007E0D4E9012118F805009047206A401C33
:100530002062281EA5F10105F3DC2046FFF76EFEC0
:100540002078000602D50220BDE8F0870120FBE7F5
:10055000074B70B50D467B4400F011F80446284661
:1005600000F020F810B14FF0FF3070BD204670BD94
:10057000F713000001694A1C02610878704700B552
:100580008FB0CDE901310021059105497944CDE9CC
:10059000031011466846FFF7BBFE0FB000BD000018
:1005A000E5FFFFFF007B00F080007047754600F01C
:1005B0002BF8AE4605006946534620F007008546F5
:1005C00018B020B5FFF7F4FDBDE820404FF000065D
:1005D0004FF000074FF000084FF0000B21F007012B
:1005E000AC46ACE8C009ACE8C009ACE8C009ACE86E
:1005F000C0098D46704710B50446AFF30080204611
:10060000BDE81040FFF7BFBD004870473001002033
:1006100000BFFEE77047000070B50446002594F85F
:100620002100022803D00420A063012548E02068AF
:10063000006820F00E00216808602068006820F043
:100640000100216808601F492068884201D101200B
:1006500026E01C4914312068884201D110201FE097
:10066000184928312068884201D1801518E01549C1
:100670003C312068884201D1801411E01149503189
:100680002068884202D14FF4803009E00D4964317E
:100690002068884202D14FF4801001E04FF0807052
:1006A000084908394860012084F8210000BF002073
:1006B00084F8200000BF606B10B12046616B884752
:1006C000284670BD080002402DE9F8470346002285
:1006D00094466EE14FF0010808FA02F4D1F8008068
:1006E00008EA0400A0427DD1DFF8DCA2D1F8048042
:1006F000A8EB0A09D0453AD014DCB8F1030F50D06A
:1007000009DCB8F1000F31D0B8F1010F1CD0B8F1FD
:10071000020F49D120E0B8F1110F18D0B8F1120F33
:1007200042D11EE0B9F5881F25D006DCB9F5803F1F
:1007300020D0B9F5801F37D11AE0B9F5001F18D0C5
:10074000B9F5041F30D117E0D1F80CC02DE0D1F875
:100750000C8008F1040C28E0D1F80C8008F1080C9A
:1007600023E0D1F80C8008F10C0C1EE000BF00BFA4
:1007700000BF00BF00BF00BFD1F80880B8F1000F74
:1007800002D14FF0040C0BE0D1F80880B8F1010F52
:1007900003D14FF0080C1C6102E04FF0080C5C61C3
:1007A00003E04FF0000C00E000BF00BFFF2801D8BD
:1007B000984601E003F104084646FF2802D84FEAB4
:1007C000820803E0A2F108084FEA88084746D6F8F5
:1007D00000804FF00F0909FA07F928EA09080CFA16
:1007E00007F900E088E048EA0908C6F80080D1F877
:1007F000048008F08058B8F1805F7DD100BFDFF839
:10080000CC81D8F8188048F00108DFF8C091C9F809
:100810001880C846D8F8188008F00108CDF8008084
:1008200000BF00BF4FEAB9384FEA920958F8295083
:100830004FEA82784FEA18794FF00F0808FA09F862
:1008400025EA0805DFF88881434502D14FF000080A
:1008500016E0DFF88081434502D14FF001080FE038
:10086000DFF87481434502D14FF0020808E0DFF859
:100870006C81434502D14FF0030801E04FF00408BA
:100880004FEA82794FEA197908FA09F848EA05052A
:10089000DFF84C814FEA920948F82950D1F80480DA
:1008A00008F48038B8F5803F0AD1DFF83881D8F8ED
:1008B000008048EA0008DFF82C91C9F8008009E0C0
:1008C000DFF82081D8F8008028EA0008DFF81491CA
:1008D000C9F80080D1F8048008F40038B8F5003F6A
:1008E00010D1DFF8008108F10408D8F8008048EA48
:1008F0000008DFF8F09000E05AE009F10409C9F8B7
:1009000000800DE0DFF8DC8008F10408D8F80080F2
:1009100028EA0008DFF8CC9009F10409C9F8008042
:10092000D1F8048008F48018B8F5801F0ED1DFF8E4
:10093000B48008F10808D8F8008048EA0008DFF819
:10094000A49009F10809C9F800800DE0DFF894804F
:1009500008F10808D8F8008028EA0008DFF8849039
:1009600009F10809C9F80080D1F8048008F40018DA
:10097000B8F5001F0ED1DFF86C8008F10C08D8F82C
:10098000008048EA0008DFF85C9009F10C09C9F81A
:1009900000800DE0DFF84C8008F10C08D8F80080EA
:1009A00028EA0008DFF83C9009F10C09C9F800803A
:1009B000521CD1F8008028FA02F8B8F1000F7FF439
:1009C00089AEBDE8F8870000000011100010024059
:1009D00000080140000C01400010014000140140DB
:1009E0000800014000040140024693680B400BB12F
:1009F000012000E0002070470AB1016101E00B0412
:100A00000361704701480068704700001C00002027
:100A100003480068034909780844014908607047A1
:100A20001C0000202400002010B50848006840F099
:100A3000100006490860032000F080F80F2000F045
:100A400007F800F02BF8002010BD00000020024045
:100A500070B504460E4800784FF47A71B1FBF0F09F
:100A60000C490968B1FBF0F5284600F0E3FB08B13A
:100A7000012070BD102C07D200222146501E00F02C
:100A80001EF80548046001E00120F2E70020F0E7CD
:100A9000240000200C0000202000002070470146A8
:100AA0000846002809DB00F01F0301229A40430991
:100AB0009B0003F1E023C3F8002100BF70472DE93C
:100AC000F05F80460D461646002700F0E7FE074619
:100AD00039462A46334601F00700C0F1070ABAF149
:100AE000040F02D94FF0040A01E0C0F1070AD14611
:100AF00000F1040ABAF1070F02D24FF0000A01E038
:100B0000A0F1030AD4464FF0010A0AFA09FAAAF141
:100B1000010A0AEA020A0AFA0CFA4FF0010B0BFA70
:100B20000CFBABF1010B0BEA030B4AEA0B04214669
:100B3000404600F0BBFEBDE8F09F000000BF00F0A3
:100B40000702064B19684FF6FF031940044B0B438D
:100B500043EA0221014B196000BF70470CED00E031
:100B60000000FA0570B504460D460CB9012070BDB1
:100B70005A48006800F00700A8420ED257480068A3
:100B800020F007002843554908600846006800F037
:100B90000700A84201D00120E9E7207800F0020018
:100BA00002281DD1207800F00400042805D14C480B
:100BB000406840F4E0604A494860207800F008004E
:100BC000082805D14648406840F4605044494860D0
:100BD0004348406820F0F000A1680843404948605D
:100BE000207800F0010078B36068012806D13C4805
:100BF000006800F4003090B90120B8E7606802286E
:100C000006D13748006800F0007040B90120AEE717
:100C10003348006800F0020008B90120A7E7304817
:100C2000406820F00300616808432D494860FFF7E1
:100C3000E9FE064609E0FFF7E5FE801B41F2883138
:100C4000884202D9032092E707E02548406800F077
:100C50000C006168B0EB810FEDD12048006800F016
:100C60000700A8420ED91D48006820F0070028435D
:100C70001A4908600846006800F00700A84201D041
:100C8000012074E7207800F00400042807D11448FC
:100C9000406820F4E060E16808431149486020782A
:100CA00000F00800082808D10D48406820F4605082
:100CB000216940EAC1000A49486000F03FF808494C
:100CC0004968C1F30311074A515CC84006490860EE
:100CD00006480068FFF7BCFE002048E700200240FD
:100CE00000100240D42300080C0000202000002047
:100CF00001480068704700000C00002000B5FFF7B5
:100D0000F7FF04494968C1F30221034A515CC84016
:100D100000BD000000100240E423000800B5FFF70A
:100D2000E7FF04494968C1F3C221034A515CC84046
:100D300000BD000000100240E4230008F0B585B0BB
:100D40000FF26C0C9CE8E01001A8A0E8E0101CA5D4
:100D50002D68009500210022002300240020194D59
:100D6000696801F00C05F5B1042D02D0082D19D1E8
:100D700001E0154819E001ADC1F38346AC5D01F413
:100D8000803555B10F4D6D68C5F340451DF8052000
:100D90000D4D6543B5FBF2F302E00C4D04FB05F38A
:100DA000184602E000BF084800BF00BF05B0F0BD14
:100DB00002030405060708090A0B0C0D0E0F10109C
:100DC000010200000010024000127A0000093D00FC
:100DD000F8B504460CB90120F8BD207800F00100F8
:100DE000002878D0F848406800F00C0004280CD0A7
:100DF000F548406800F00C00082811D1F24840681E
:100E000000F48030B0F5803F0AD1EF48006800F46C
:100E1000003000285FD0606800285CD10120DBE74B
:100E200000BF6068B0F5803F06D1E748006840F435
:100E30008030E549086028E0606858B9E2480068F9
:100E400020F48030E04908600846006820F48020E3
:100E500008601AE06068B0F5A02F0BD1DA4800688E
:100E600040F48020D84908600846006840F480308B
:100E700008600AE0D448006820F48030D249086055
:100E80000846006820F48020086000BF606888B1D0
:100E9000FFF7B8FD054606E0FFF7B4FD401B6428E8
:100EA00001D9032098E7C848006800F40030002802
:100EB000F2D010E0FFF7A6FD054606E0FFF7A2FD21
:100EC000401B642801D9032086E7BF48006800F46E
:100ED00000300028F2D1207800F00200022857D11B
:100EE000B948406800F00C0050B1B748406800F0C5
:100EF0000C00082818D1B448406800F4803098B934
:100F0000B148006800F0020020B12069012801D03A
:100F1000012061E7AC48006820F0F800616940EA10
:100F2000C100A949086033E02069E8B10120A74960
:100F30000860FFF767FD054606E0FFF763FD401B0D
:100F4000022801D9032047E79F48006800F002000B
:100F50000028F2D09C48006820F0F800616940EA5F
:100F6000C1009949086013E0002098490860FFF724
:100F700049FD054606E0FFF745FD401B022801D963
:100F8000032029E79048006800F002000028F2D111
:100F9000207800F0080008282DD1A069B8B1012000
:100FA0008B490860FFF72EFD054606E0FFF72AFD96
:100FB000401B022801D903200EE78348406A00F055
:100FC00002000028F2D0012000F01CFB13E00020FA
:100FD0007F490860FFF716FD054606E0FFF712FDA2
:100FE000401B022801D90320F6E67748406A00F04A
:100FF00002000028F2D1207800F00400042873D108
:1010000000277148C06900F0805070B900BF6E4879
:10101000C06940F080506C49C8610846C06900F062
:101020008050009000BF00BF01276A48006800F4AC
:101030008070B0B96748006840F480706549086006
:10104000FFF7E0FC054606E0FFF7DCFC401B6428E8
:1010500001D90320C0E65F48006800F480700028D2
:10106000F2D000BFE068012806D15748006A40F07E
:1010700001005549086227E0E06858B95248006A03
:1010800020F00100504908620846006A20F0040080
:10109000086219E0E06805280BD14B48006A40F06F
:1010A0000400494908620846006A40F001000862ED
:1010B0000AE04548006A20F00100434908620846FA
:1010C000006A20F00400086200BFE068A0B1FFF7EA
:1010D00099FC054609E0FFF795FC401B41F2883179
:1010E000884202D9032077E622E03748006A00F000
:1010F00002000028EFD012E0FFF784FC054608E06C
:10110000FFF780FC401B41F28831884201D903205F
:1011100062E62D48006A00F002000028F0D1012F9D
:1011200005D12948C06920F080502749C86100BF17
:10113000E069C8B32448406800F00C00082860D07B
:10114000E069022848D1002020490866FFF75AFCD0
:10115000054606E0FFF756FC401B022801D9032094
:101160003AE61948006800F000700028F2D1206AC1
:10117000B0F5803F07D11448406820F40030A168E2
:10118000084311494860D4E9080108430E494968F9
:1011900021F4741108430C49486001200B4908668A
:1011A000FFF730FC054607E03DE0FFF72BFC401B56
:1011B000022801D903200FE60348006800F0007000
:1011C0000028F2D02FE00000001002400000424250
:1011D0008004424200700040002014490866FFF776
:1011E00011FC054606E0FFF70DFC401B022801D963
:1011F0000320F1E50E48006800F000700028F2D1ED
:1012000011E0E069012800D1E6E50948466806F4E6
:101210008031206A814204D106F47011606A8142F3
:1012200001D00120D8E50020D6E5000000004242B0
:101230000010024070B504462546681EB0F1807F5C
:1012400001D301200FE0681E4FF0E02148610F211B
:101250004FF0FF3000F02AFB00204FF0E0218861C2
:1012600007200861002070BD704700002DE9F0479D
:101270000446206805682068C668206847694FF002
:101280000008C14605F00F08B8F1000F0AD105F0BB
:10129000200038B106F0200020B1204600F0F6F919
:1012A000BDE8F087B8F1000F71D007F0010018B960
:1012B00006F4907000286AD005F0010030B106F401
:1012C000807018B1E06B40F00100E06305F00400AD
:1012D00030B107F0010018B1E06B40F00200E063AC
:1012E00005F0020030B107F0010018B1E06B40F0EA
:1012F0000400E06305F0080048B106F0200010B9D2
:1013000007F0010018B1E06B40F00800E063E06B0B
:1013100068B305F0200028B106F0200010B1204687
:1013200000F0B4F920684069C0F38019E06B00F068
:10133000080010B9B9F1000F22D0204600F086F95C
:101340002068406900F04000B0B12068406920F09A
:10135000400021684861606B50B11848616B486378
:10136000606BFFF759F910B1606B416B88470CE077
:101370002046FFF779FF08E02046FFF775FF04E0FD
:101380002046FFF771FF0020E06389E7FFE705F0E3
:10139000800030B106F0800018B1204600F044FA19
:1013A0007EE705F0400030B106F0400018B120465D
:1013B00000F05CF974E700BF72E70000391600081E
:1013C00010B504460CB9012010BDA06900B100E0C1
:1013D00000BF94F8390028B9002084F8380020466E
:1013E00000F028F8242084F839002068C06820F430
:1013F00000502168C860204600F098F92068006914
:1014000020F49040216808612068406920F02A009B
:10141000216848612068C06840F400502168C860B5
:101420000020E063202084F8390084F83A0000208E
:10143000CAE7000010B586B00446284920688842F3
:101440004AD100BF00BF2648806940F0040024490B
:1014500088610846806900F00400019000BF00BF69
:1014600000BF00BF00BF0846806940F004008861EB
:101470000846806900F00400019000BF00BF00BF73
:1014800000BF00BF0846806940F48040886108467C
:10149000806900F48040019000BF00BF00BF481584
:1014A000029002200390012004900320059002A9DD
:1014B0000C48FFF709F94FF4806002900020039078
:1014C00002A90848FFF700F92520FFF7E8FA0322F0
:1014D00011462520FFF7F3FA06B010BD0038014091
:1014E000001002400008014010B5034693F83A008E
:1014F00020282FD101B10AB9012010BD00BF93F8F7
:101500003800012801D10220F7E7012083F83800D4
:1015100000BF99629A85DA850020D863222083F87B
:101520003A0000BF002083F8380000BF1868C06888
:1015300040F480701C68E0601868406940F0010069
:101540001C6860611868C06840F020001C68E0609A
:101550000020D2E70220D0E710B5044620492068D9
:1015600088423BD11F48008800F4004088BB1D48DA
:10157000008800F4804070B11B4800780A2803D02E
:1015800000201849088024E01648008840F40040F4
:10159000144908801DE0144800780D2806D1114830
:1015A000008840F480400F49088012E00E4800781F
:1015B0000C490988C1F30D010C4A505409480088B0
:1015C000401C0849088008460088C72801DD002023
:1015D0000880012204490648FFF786FF10BD00007D
:1015E00000380140180000201A00002028000020C8
:1015F000F0000020704700BFFEE700BFFEE7704725
:101600007047000008B508490968C9084FF47A72A4
:10161000B1FBF2F14143009100BF00BF00994A1EA7
:1016200000920029F9D108BD0C000020704710B5C8
:10163000FFF7EEF910BD704770B505466C6A0020E3
:10164000E085E0842046FFF70FFE70BD0168C968A1
:1016500021F490710268D1600168496921F00101AB
:1016600002685161202180F83A10704710B5044695
:101670002068C06820F040002168C860202084F8FD
:1016800039002046FFF7B6FF002010BD70B50446B4
:1016900094F83A00222847D1A068B0F5805F0CD1B9
:1016A000206950B90025A66A20684068C0F3080088
:1016B0003080A06A801CA06215E0A56A0026A068A0
:1016C000B0F5805F03D0A06828B9206918B92068F8
:1016D0004068287004E02068406800F07F002870AF
:1016E000A06A401CA062E08D401E80B2E085C8B9AF
:1016F0002068C06820F020002168C8602068C068A9
:1017000020F480702168C8602068406920F00100E2
:1017100021684861202084F83A002046FFF71CFF2A
:10172000002070BD0020FCE70220FAE770B50446F7
:101730002168096921F44051E2681143226811616E
:101740002269A1681143626941EA02052168C968FA
:1017500041F20C62914329432268D16021684969B2
:1017600021F44071A2691143226851612D4A216818
:10177000914202D1FFF7D2FA01E0FFF7BFFA00EB86
:10178000C00101EB001162689200B1FBF2F100EBC5
:10179000C00202EB001263689B00B2FBF3F2642309
:1017A000B2FBF3F202EBC20303EB0212A1EB8201E4
:1017B000322202EB01116422B1FBF2F101F0F001DF
:1017C00000EBC00202EB001263689B00B2FBF3F275
:1017D0006423B2FBF3F201EB021200EBC00101EB58
:1017E000001163689B00B1FBF3F100EBC00303EB56
:1017F00000136668B600B3FBF6F36426B3FBF6F39A
:1018000003EBC30606EB0313A1EB8301322303EBC7
:1018100001116423B1FBF3F101F00F0111442268BF
:10182000916070BD00380140014691F839002128CF
:1018300028D18868B0F5805F0BD1086948B90A6A79
:101840001088C0F308000B685860086A801C0862A2
:1018500005E00B6A581C086218780B685860C88C41
:10186000401E80B2C88458B90868C06820F0800063
:101870000B68D8600868C06840F040000B68D8600A
:10188000002070470220FCE710B50248FFF7EEFC8D
:1018900010BD0000F000002000BFFEE70248006815
:1018A000C0F30220704700000CED00E010B50028E6
:1018B00004DB0A07130E054A135406E00A07140E48
:1018C000034A00F00F031B1FD45410BD00E400E0D6
:1018D00018ED00E030380A2801D2012070470020BE
:1018E000704700BF70470000014908607047000062
:1018F0001000002010B504464FF47A7104FB01F08B
:1019000000F002F810BD000070B5034600224FF051
:10191000E02675690D4E366803FB06F44FF0E026AD
:10192000B16910E04FF0E026B06988420BD08842E0
:1019300002D20E1A324402E02E1A0E4432440146FC
:10194000A24200D300E0EDE700BF70BD1000002010
:1019500000BF054A126802F04002002AF9D0C2B264
:10196000014B1B1D1A607047003801400EB5FFF790
:101970005BF84FF4E01000F0DEFC4820FFF7B4FF06
:101980004FF4E13000F00AFD00F0D3FB00F0BCFBA7
:1019900000F072F8062310A20021084600F076FC41
:1019A00019E00F490F4800F02DF80D48B0F9040078
:1019B0000B49B1F902100A4AB2F90020CDE9002121
:1019C00002900848B0F90430B0F90220B0F90010D4
:1019D00005A0FEF701FCE4E748656C6C6F21000090
:1019E000060000200000002025642C2025642C2007
:1019F00025642C2025642C2025642C2025640D0AC8
:101A0000000000007FB504460D460E2269463B20CB
:101A100000F0B7F878BB9DF801009DF8001040EA8F
:101A2000012000B220809DF803009DF8021040EADA
:101A3000012000B260809DF805009DF8041040EA86
:101A4000012000B2A0809DF809009DF8081040EA2E
:101A5000012000B228809DF80B009DF80A1040EA92
:101A6000012000B268809DF80D009DF80C1040EA3E
:101A7000012000B2A8807FBD10B500F0EDF8752000
:101A800000F050F80446682C03D10EA0FEF7A4FB2A
:101A900003E0214615A0FEF79FFB01216B2000F01B
:101AA000ACF803211A2000F0A8F80421192000F056
:101AB000A4F818211B2000F0A0F800211C2000F041
:101AC0009CF810BD4D50553630353020696E697424
:101AD00069616C697A6174696F6E2073756363659F
:101AE000737366756C210D0A000000004D50553669
:101AF00030353020696E697469616C697A61746926
:101B00006F6E206661696C65642120526561642096
:101B1000436869702049443A203078253032580DA6
:101B20000A00000070B5044600F08EF9D02000F0E5
:101B30002FF900F0CBF9012803D100F0A5F901201D
:101B400070BD204600F024F900F0C0F9012803D14F
:101B500000F09AF90120F3E700F076F9D12000F0C7
:101B600017F900F0B3F9012803D100F08DF9012035
:101B7000E6E7002000F0B0F8054600F085F92846B9
:101B8000DEE72DE9F04107460E46154600F05CF908
:101B9000D02000F0FDF800F099F920B100F074F9C0
:101BA0000120BDE8F081384600F0F2F800F08EF92F
:101BB00018B100F069F90120F3E700F045F9D120F0
:101BC00000F0E6F800F082F918B100F05DF90120AC
:101BD000E7E700240BE0691EA14201DD012100E0DE
:101BE0000021084600F078F83055601CC4B2AC42C1
:101BF000F1DB00F049F90020D3E770B505460C464B
:101C000000F022F9D02000F0C3F800F05FF90128BD
:101C100003D100F039F9022070BD284600F0B8F871
:101C200000F054F9012803D100F02EF90220F3E767
:101C3000204600F0ADF800F049F9012803D100F08A
:101C400023F90220E8E700F01FF90020E4E710B5CF
:101C50000520FFF759FE10BD00B585B000200190AA
:101C600002900390049000BF00BF1948806940F0C3
:101C70000800174988610846806900F00800009054
:101C800000BF00BF00BF0815019011200290012085
:101C900003900320049001A90E48FEF715FD4FF4B0
:101CA0000060019011200290012003900320049015
:101CB00001A90848FEF708FD012291020548FEF738
:101CC0009BFE0122D1020348FEF796FE05B000BD3F
:101CD00000100240000C014070B5054600240026AB
:101CE00020E000224FF480611348FEF785FEFFF7E5
:101CF000AEFF012291021048FEF77EFEFFF7A7FF1C
:101D00006006040E4FF400610B48FEF76DFE08B14B
:101D100044F0010400224FF480610748FEF76CFE96
:101D2000701CC6B2082EDCDB15B100F007F801E02C
:101D300000F068F8204670BD000C014010B500228C
:101D40004FF480611148FEF757FEFFF780FF002235
:101D50004FF400610D48FEF74FFEFFF778FF0122B8
:101D600091020A48FEF748FEFFF771FF00224FF488
:101D700080610648FEF740FEFFF769FF0122D102AD
:101D80000248FEF739FEFFF762FF10BD000C01406C
:101D900070B5044600224FF480611948FEF72CFE0E
:101DA000FFF755FF002522E0E00928B10122D1020A
:101DB0001348FEF721FE05E000224FF400611048B1
:101DC000FEF71AFEFFF743FF012291020C48FEF7CF
:101DD00013FEFFF73CFF00224FF480610848FEF736
:101DE0000BFEFFF734FF6006040E681CC5B2082D19
:101DF000DADB0122D1020248FEF7FEFD70BD0000D1
:101E0000000C014010B500224FF480610D48FEF730
:101E1000F3FDFFF71CFF0122D1020A48FEF7ECFD9B
:101E2000FFF715FF012291020648FEF7E5FDFFF7D7
:101E30000EFF00224FF480610248FEF7DDFDFFF740
:101E400006FF10BD000C014010B5012291020D48A3
:101E5000FEF7D2FD0122D1020A48FEF7CDFDFFF7C1
:101E6000F6FE00224FF400610648FEF7C5FDFFF7BD
:101E7000EEFE00224FF480610248FEF7BDFDFFF741
:101E8000E6FE10BD000C014010B500224FF4806149
:101E90000D48FEF7B1FDFFF7DAFE00224FF40061B6
:101EA0000948FEF7A9FDFFF7D2FE0122910206487C
:101EB000FEF7A2FDFFF7CBFE0122D1020248FEF79A
:101EC0009BFDFFF7C4FE10BD000C014010B50122C0
:101ED000D1021448FEF790FDFFF7B9FE00224FF43F
:101EE00080611048FEF788FDFFF7B1FE01229102E4
:101EF0000C48FEF781FDFFF7AAFE4FF40061094888
:101F0000FEF772FD18B1FFF7BFFF012010BD0022E0
:101F10004FF480610348FEF76FFDFFF798FE002045
:101F2000F4E70000000C014010B50520FFF7ECFCC1
:101F300010BD000000B585B0002001900290039014
:101F4000049000BF00BF1948806940F0080017499D
:101F500088610846806900F00800009000BF00BF5B
:101F600000BF8815019011200290012003900320EA
:101F7000049001A90E48FEF7A7FB4FF400700190F2
:101F800011200290012003900320049001A9084829
:101F9000FEF79AFB012211020548FEF72DFD0122F2
:101FA00051020348FEF728FD05B000BD00100240B5
:101FB000000C014070B5044600224FF480711948AE
:101FC000FEF71AFDFFF7B0FF002522E0E00928B177
:101FD000012251021348FEF70FFD05E000224FF4E5
:101FE00000711048FEF708FDFFF79EFF0122110265
:101FF0000C48FEF701FDFFF797FF00224FF48071B8
:102000000848FEF7F9FCFFF78FFF6006040E681C16
:10201000C5B2082DDADB012251020248FEF7ECFCC2
:1020200070BD0000000C014010B5012211020D48E6
:10203000FEF7E2FC012251020A48FEF7DDFCFFF741
:1020400073FF00224FF400710648FEF7D5FCFFF73E
:102050006BFF00224FF480710248FEF7CDFCFFF7C2
:1020600063FF10BD000C014010B500224FF48071D9
:102070000D48FEF7C1FCFFF757FF00224FF4007137
:102080000948FEF7B9FCFFF74FFF0122110206488D
:10209000FEF7B2FCFFF748FF012251020248FEF7AB
:1020A000ABFCFFF741FF10BD000C014010B5012251
:1020B00051021448FEF7A0FCFFF736FF00224FF450
:1020C00080711048FEF798FCFFF72EFF01221102E5
:1020D0000C48FEF791FCFFF727FF4FF40071094809
:1020E000FEF782FC18B1FFF7BFFF012010BD0022F0
:1020F0004FF480710348FEF77FFCFFF715FF0020C7
:10210000F4E70000000C014070B500240EE0214609
:10211000002000F05DF8002504E0002000F0ECF85D
:10212000681CC5B2802DF8DB601CC4B2082CEEDB45
:1021300070BD10B5FFF7FEFE6420FFF7DBFBAE209D
:1021400000F0BBF8D52000F0B8F8802000F0B5F81A
:10215000A82000F0B2F83F2000F0AFF8D32000F044
:10216000ACF8002000F0A9F8402000F0A6F8A1206B
:1021700000F0A3F8C82000F0A0F8DA2000F09DF8E5
:10218000122000F09AF8812000F097F8CF2000F09C
:1021900094F8D92000F091F8F12000F08EF8DB20BF
:1021A00000F08BF8302000F088F8A42000F085F8CB
:1021B000A62000F082F88D2000F07FF8142000F0B7
:1021C0007CF8AF2000F079F86420FFF793FB10BD96
:1021D00070B504460D4604F00F0000F06EF81021B3
:1021E00041EA141000F069F845F0B00000F065F81D
:1021F00070BD00002DE9F04180460F4614461D4693
:10220000062D14D139464046FFF7E2FF00260BE0C9
:10221000A4F1200101EB41011A4A02EB4101885D62
:1022200000F06AF8701CC6B2062EF1DB28E0082D1B
:1022300026D139464046FFF7CBFF002609E0A4F13E
:102240002001114A02EB0111885D00F055F8701C65
:10225000C6B2082EF3DB781CC1B24046FFF7B8FFC8
:1022600000260BE0A4F12001074A02EB011206F15F
:102270000801505C00F040F8701CC6B2082EF1DB7B
:10228000BDE8F081DC290008EC2300082DE9F041CD
:102290000646884615461F46002409E02A5D04FBD1
:1022A0000761C8B23B464146FFF7A4FF601CC4B2B9
:1022B000285D0028F2D1BDE8F08110B50446FFF793
:1022C000B3FE7820FFF776FEFFF7F0FE08B1FFF7C8
:1022D000CBFE0020FFF76EFEFFF7E8FE08B1FFF728
:1022E000C3FE2046FFF766FEFFF7E0FE08B1FFF7EA
:1022F000BBFEFFF7B9FE10BD10B50446FFF794FE14
:102300007820FFF757FEFFF7D1FE08B1FFF7ACFECC
:102310004020FFF74FFEFFF7C9FE08B1FFF7A4FE0C
:102320002046FFF747FEFFF7C1FE08B1FFF79CFE0E
:10233000FFF79AFE10BD30B58FB005460124282165
:1023400005A8FEF781F814216846FEF77DF8012004
:102350000590000406900020079002200C90C10315
:102360000D910E9505A8FEF733FD04460CB100BF94
:10237000FEE70F20009002200190002002904FF411
:10238000806003900020049002216846FEF7EAFB7B
:1023900004460CB100BFFEE70FB030BD10B50446D7
:1023A00009480A4908600846446000218160C1600C
:1023B000016181610C214161FFF702F801220449AA
:1023C0000248FFF791F810BD00380140F0000020EE
:1023D0001A000020000000000000000001020304B9
:1023E00006070809000000000102030400000000C5
:1023F000000000000000000000000000000000F8E5
:1024000000000000000000333000000000160E0045
:10241000160E0000000000000000000040C07840E0
:10242000C0784000043F04043F040400007088FCAE
:1024300008300000001820FF211E0000F008F00006
:10244000E018000000211C031E211E0000F0088877
:10245000700000001E2123241927211000000016FF
:102460000E0000000000000000000000000000E07E
:1024700018040200000000071820400000020418A1
:10248000E00000000040201807000000404080F0FD
:10249000804040000202010F01020200000000F033
:1024A000000000000101011F010101000000000007
:1024B0000000000000B070000000000000000000FC
:1024C0000000000000010101010101010000000005
:1024D000000000000030300000000000000000009C
:1024E00080601804006018060100000000E0100879
:1024F0000810E000000F102020100F00001010F84E
:10250000000000000020203F20200000007008088C
:10251000088870000030282422213000003008880C
:10252000884830000018202020110E000000C02034
:1025300010F8000000070424243F240000F8088855
:10254000880808000019212020110E0000E01088E2
:1025500088180000000F112020110E000038080814
:10256000C83808000000003F000000000070880824
:1025700008887000001C222121221C0000E01008A5
:102580000810E0000000312222110F00000000C0FE
:10259000C00000000000003030000000000000C05B
:1025A000C0000000000080B070000000000080400B
:1025B00020100800000102040810200040404040A4
:1025C00040404000040404040404040000081020F7
:1025D000408000000020100804020100007048083C
:1025E0000808F0000000003036010000C030C828A4
:1025F000E810E0000718272423140B000000C0385F
:10260000E0000000203C23020227382008F88888D8
:1026100088700000203F202020110E00C0300808E4
:1026200008083800071820202010080008F80808BB
:102630000810E000203F202020100F0008F88888B4
:10264000E8081000203F20202320180008F8888880
:10265000E8081000203F200003000000C0300808F8
:102660000838000007182020221E020008F8080081
:102670000008F808203F210101213F20000808F848
:10268000080800000020203F20200000000008086B
:10269000F8080800C08080807F00000008F888C02B
:1026A00028180800203F20012638200008F80800DC
:1026B00000000000203F20202020300008F8F80013
:1026C000F8F80800203F003F003F200008F830C025
:1026D0000008F808203F200007183F00E010080815
:1026E0000810E0000F10202020100F0008F8080844
:1026F0000808F000203F210101010000E010080857
:102700000810E0000F18242438504F0008F888887B
:1027100088887000203F2000030C3020007088085B
:10272000080838000038202121221C00180808F869
:10273000080818000000203F2000000008F80800EA
:102740000008F808001F202020201F0008788800BB
:1027500000C83808000007380E010000F80800F82B
:102760000008F800033C0700073C030008186880D5
:102770008068180820302C03032C30200838C8004B
:10278000C83808000000203F20000000100808089A
:10279000C83808002038262120201800000000FE3C
:1027A000020202000000007F40404000000C30C0E8
:1027B00000000000000000010638C0000002020214
:1027C000FE000000004040407F0000000020100894
:1027D00004081020000000000000000000000000BD
:1027E00000000000808080808080808000020408DB
:1027F00000000000000000000000000000008080D9
:10280000808000000019242222223F2008F8008046
:1028100080000000003F112020110E000000008009
:1028200080800000000E1120202011000000008098
:102830008088F800000E112020103F2000008080CA
:1028400080800000001F222222221300008080F0DE
:10285000888888180020203F202000000000808009
:1028600080808000006B94949493600008F800804E
:1028700080800000203F210000203F2000809898A9
:10288000000000000020203F202000000000008009
:102890009898000000C08080807F000008F8000049
:1028A00080808000203F24022D302000000808F89E
:1028B000000000000020203F202000008080808059
:1028C00080808000203F20003F20003F008080006B
:1028D0008080000000203F2100203F2000008080F9
:1028E00080800000001F202020201F0080800080AA
:1028F0008000000080FFA12020110E000000008059
:1029000080808000000E112020A0FF808080800049
:102910008080800020203F21200001000000808076
:10292000808080000033242424241900008080E06B
:10293000808000000000001F202000008080000038
:1029400000808000001F202020103F208080800019
:102950000080808000010E30080601008080008029
:10296000008080800F300C030C300F00008080004E
:10297000808080000020312E0E3120008080800079
:102980000080808080818E70180601000080808029
:10299000808080000021302C2221300000000000C7
:1029A000807C020200000000003F40400000000068
:1029B000FF00000000000000FF0000000002027C99
:1029C000800000000040403F0000000000804040C8
:1029D00080000080000000000001010000000000F5
:1029E00000000000002F0000000007000700001496
:1029F0007F147F1400242A7F2A12002313086462A4
:102A000000364955225000000007000000001C223B
:102A10004100000041221C000014083E0814000878
:102A2000083E0808000000A0600000080808080828
:102A3000000060600000002010080402003E5149C0
:102A4000453E0000427F400000426151494600215E
:102A500041454B31001814127F1000274545453978
:102A6000003C4A49493000017109050300364949D3
:102A7000493600064949291E00003636000000008C
:102A800056360000000814224100001414141414D7
:102A9000000041221408000201510906003E495578
:102AA000592E007C1211127C007F49494936003EA4
:102AB00041414122007F4141221C007F4949494157
:102AC000007F09090901003E4149497A007F080851
:102AD000087F0000417F4100002040413F01007F0E
:102AE00008142241007F40404040007F020C027FDA
:102AF000007F0408107F003E4141413E007F0909EC
:102B00000906003E4151215E007F09192946004611
:102B1000494949310001017F0101003F4040403FE8
:102B2000001F2040201F003F4038403F0063140832
:102B3000146300070870080700615149454300000D
:102B40007F414100000204081020000041417F0045
:102B50000004020102040040404040400000010225
:102B60000400002054545478007F4844443800380E
:102B70004444442000384444487F00385454541896
:102B800000087E0901020018A4A4A47C007F0804A8
:102B900004780000447D4000004080847D00007F78
:102BA000102844000000417F4000007C0418047895
:102BB000007C0804047800384444443800FC242491
:102BC00024180018242418FC007C08040408004879
:102BD0005454542000043F444020003C4040207C9A
:102BE000001C2040201C003C4030403C0044281089
:102BF0002844001CA0A0A07C004464544C44000065
:102C0000087F41000000007F00000000417F0800B5
:102C1000000804081008A3AC000000000000000039
:102C20000000000000000000000000000058380014
:102C30000000000000000000000000A1A300000050
:102C40000000000000000000000000000000000084
:102C500000001824241800000000000000000000FC
:102C6000C4E3000000008060F8074020180F08C887
:102C70000808281800010000FF00100C0340807FA6
:102C80000001061800BAC30000001010F01F10F079
:102C900000808282E2928A868000402215081661B6
:102CA000000040807F0000000000CAC0000000203B
:102CB0002020FE2020FF202020FF202020200000B8
:102CC00000007F404047444444474040400000BD2E
:102CD000E7000000000000FE929292FE929292FEA7
:102CE0000000000008080484621E010001FE0204C6
:102CF000040808000000000000FF0101013109097B
:102D00000909897101010101FFFF808080808080B5
:102D10009681808080808080FFFF01818181FD8994
:102D200091A1C1FD81818101FFFF808080809F880A
:102D30008482819F80808080FF3031323334353609
:102D400037383941424344454640305800303132EB
:102D500033343536373839616263646566403078BC
:102D60000004000008000000000000000200010054
:102D700000100000942D0008000000202800000032
:102D800024010008BC2D000828000020680700006E
:102D900040010008000000000000000000000000EA
:102DA0000024F4000000000000000000000000000B
:0C2DB00000000000100000000100000006
:04000005080000E906
:00000001FF
